:100000000C947C000C94A4000C94A4000C94A40008
:100010000C94A4000C94A4000C94A4000C94A400D0
:100020000C94A4000C94A4000C94A4000C94A400C0
:100030000C94A4000C94A4000C94A4000C94A400B0
:100040000C9436070C94A4000C9404070C94DE0660
:100050000C94A4000C94A4000C94A4000C94A40090
:100060000C9480070C94A4000000000024002700DA
:100070002A0000000000250028002B0000000000DE
:1000800023002600290004040404040404040202DA
:100090000202020203030303030301020408102007
:1000A0004080010204081020010204081020000012
:1000B0000008000201000003040700000000000027
:1000C0000000202020202020202020202020202070
:1000D000200053657420416C61726D2046696E6921
:1000E0007368005365742054696D652046696E69B4
:1000F00073682000D708691111241FBECFEFD8E024
:10010000DEBFCDBF22E0ACE5B1E001C01D92AD3B4A
:10011000B207E1F711E0A0E0B1E0E6E5F8E202C0E5
:1001200005900D92AC35B107D9F710E0CBE7D0E0E0
:1001300004C02197FE010E941D12CA37D107C9F7DA
:100140000E9442090C941E140C940000AF92BF92BE
:10015000CF92DF92EF92FF920F931F93CF93DF9393
:100160006C017B018B01040F151FEB015E01AE18C2
:10017000BF08C017D10759F06991D601ED91FC91E4
:100180000190F081E02DC6010995892B79F7C50111
:10019000DF91CF911F910F91FF90EF90DF90CF9063
:1001A000BF90AF900895FC01538D448D252F30E012
:1001B000842F90E0821B930B541710F0CF96089574
:1001C00001970895FC01918D828D981761F0A28DA1
:1001D000AE0FBF2FB11D5D968C91928D9F5F9F7367
:1001E000928F90E008958FEF9FEF0895FC01918D1D
:1001F000828D981731F0828DE80FF11D858D90E08A
:1002000008958FEF9FEF0895FC01918D228D892F26
:1002100090E0805C9F4F821B91098F73992708950E
:1002200086EE91E00E94040121E0892B09F420E090
:10023000822F089580E090E0892B29F00E94100120
:1002400081110C9400000895FC01A48DA80FB92F12
:10025000B11DA35ABF4F2C91848D90E001968F73EE
:100260009927848FA689B7892C93A089B1898C910D
:10027000837080648C93938D848D981306C002885C
:10028000F389E02D80818F7D80830895EF92FF9226
:100290000F931F93CF93DF93EC0181E0888F9B8DA9
:1002A0008C8D98131AC0E889F989808185FF15C063
:1002B0009FB7F894EE89FF896083E889F989808186
:1002C0008370806480839FBF81E090E0DF91CF9155
:1002D0001F910F91FF90EF900895F62E0B8D10E077
:1002E0000F5F1F4F0F731127E02E8C8D8E110CC0E6
:1002F0000FB607FCFACFE889F989808185FFF5CF31
:10030000CE010E942401F1CFEB8DEC0FFD2FF11DEA
:10031000E35AFF4FF0829FB7F8940B8FEA89FB896D
:1003200080818062CFCFCF93DF93EC01888D8823CB
:10033000B9F0AA89BB89E889F9898C9185FD03C048
:10034000808186FD0DC00FB607FCF7CF8C9185FF2D
:10035000F2CF808185FFEDCFCE010E942401E9CF4D
:10036000DF91CF910895833081F028F4813099F0A6
:100370008230A9F008958730A9F08830C9F0843020
:10038000B1F4809180008F7D03C0809180008F77D1
:1003900080938000089584B58F7784BD089584B5D7
:1003A0008F7DFBCF8091B0008F778093B000089550
:1003B0008091B0008F7DF9CFCF93DF93282F30E06D
:1003C000F901E255FF4F8491F901E656FF4FD491B0
:1003D000F901EA57FF4FC491CC23A1F081110E948B
:1003E000B301EC2FF0E0EE0FFF1FE458FF4FA59193
:1003F000B491EC91ED2381E090E009F480E0DF918D
:10040000CF91089580E090E0FACF1F93CF93DF93D0
:10041000282F30E0F901E255FF4F8491F901E656AB
:10042000FF4FD491F901EA57FF4FC491CC23A9F0B3
:10043000162F81110E94B301EC2FF0E0EE0FFF1F89
:10044000EE58FF4FA591B4918FB7F894EC9111112C
:1004500008C0D095DE23DC938FBFDF91CF911F9131
:100460000895DE2BF8CFCF93DF9390E0FC01E656A2
:10047000FF4F24918A579F4FFC0184918823C9F034
:1004800090E0880F991FFC01E859FF4FA591B491A6
:10049000FC01EE58FF4FC591D49161110DC09FB77B
:1004A000F8948C91209582238C938881282328832B
:1004B0009FBFDF91CF910895623051F49FB7F894B8
:1004C0003C91822F809583238C93E8812E2BEFCF54
:1004D0008FB7F894EC912E2B2C938FBFEACF60E06E
:1004E000809198020E94330261E0809197020E94FD
:1004F0000502809198020E94DC010197D1F360E02F
:10050000809197020C940502CF93DF93C7E9D2E064
:1005100061E089810E94330260E089810E940502C6
:1005200061E088810E94050261E089810E940502E4
:1005300060E08981DF91CF910C9433023FB7F8944A
:100540008091D2019091D301A091D401B091D501B5
:1005500026B5A89B05C02F3F19F00196A11DB11D1E
:100560003FBFBA2FA92F982F8827BC01CD01620F5A
:10057000711D811D911D42E0660F771F881F991F15
:100580004A95D1F708958F929F92AF92BF92CF92E2
:10059000DF92EF92FF924B015C010E949E026B0181
:1005A0007C010E949E026C197D098E099F09683E9C
:1005B000734081059105A8F321E0821A9108A108F2
:1005C000B10888EEC80E83E0D81EE11CF11C81142E
:1005D0009104A104B10429F7FF90EF90DF90CF9030
:1005E000BF90AF909F908F900895089520918301C0
:1005F000260F3327331F21323105ECF42091A70158
:10060000FC0190E080E0243069F082E00895A09140
:1006100083012191AC014D595E4FA40FB52FB11D3F
:100620002C930196861798F380918301680F60934D
:10063000830180E0089581E0089508958FEF9FEF92
:1006400008958FEF9FEF089580915C0190E0919560
:10065000819591090895CF93DF93CB01EA01642F2F
:100660000E94F602CE01DF91CF910895CF93DF93E0
:100670001F92CDB7DEB7698361E0CE0101960E947B
:10068000F60281E090E00F90DF91CF91089590E025
:1006900080E008950F931F93CF93DF93082F162FB9
:1006A000D42FC8E06D2F661F6627661F802F0E941B
:1006B0000502DD0F61E0812F0E94050260E0812FBD
:1006C0000E940502C15071F7DF91CF911F910F91E8
:1006D00008951F93CF93DF93182FC7E9D2E061E00D
:1006E00089810E94330261E089810E94050261E0F4
:1006F00088810E94050260E089810E94050260E015
:1007000088810E940502412F68818981DF91CF9104
:100710001F910C944A031F93CF93DF93182FC7E9BF
:10072000D2E061E089810E943302412F6881898192
:10073000DF91CF911F910C944A03CF93DF93909157
:10074000A002992349F194EE9093BC009091BC00D3
:1007500097FFFCCF90ED9093BB0094EC9093BC007E
:100760009091BC0097FFFCCF8093BB0084EC8093FA
:10077000BC008091BC0087FFFCCF6093BB0084EC81
:100780008093BC008091BC0087FFFCCF84E98093FC
:10079000BC00DF91CF910895C62FD82F80ED0E9425
:1007A00069030E946F028D2F0E948B030E946F02CB
:1007B0008C2F0E948B030E946F02DF91CF910C94CB
:1007C0008402CF93DF93EC0160E08E810E940502EA
:1007D00061E08E810E94050260E08E810E94050228
:1007E0008BE891E00197F1F7DF91CF910895CF92D7
:1007F000DF92EF92FF920F931F93CF93DF936C01E1
:100800007C0187E0E80EF11CD0E0C0E0062F10E08C
:10081000B8010C2E02C0759567950A94E2F76170D5
:10082000F70181917F010E9405022196C430D10514
:1008300079F7C601DF91CF911F910F91FF90EF9053
:10084000DF90CF900C94E103CF92DF92EF92FF9272
:100850000F931F93CF93DF93EC01F62E642F8C81BF
:100860000E9405028D818F3F19F060E00E94050211
:100870000F2D10E08F8584FF25C06E0187E0C80E24
:10088000D11CF12CE12CB8010E2C02C07595679596
:100890000A94E2F76170F60181916F010E940502EE
:1008A000FFEFEF1AFF0A88E0E816F10461F7CE01C6
:1008B000DF91CF911F910F91FF90EF90DF90CF903C
:1008C0000C94E103B80184E0759567958A95E1F78A
:1008D000CE010E94F7036F2DCE01DF91CF911F91C2
:1008E0000F91FF90EF90DF90CF900C94F70340E0D2
:1008F000682F81EA92E00C94240481E00E9477043E
:100900008BE39FE10197F1F70895CF93DF93823056
:1009100029F49091B00298609093B0028093B40251
:100920001092B50280E48093B60280E18093B70212
:1009300080E58093B80261E08091A5020E943302B5
:100940008091A6028F3F19F061E00E94330261E0BE
:100950008091A7020E943302C1EAD2E09E01215A8F
:1009600032408091B00284FD0BC084E090E021967B
:100970002817390744F461E08E810E943302EECFDC
:1009800088E090E0F4CF8BE39DE00197F1F760E021
:100990008091A5020E94050260E08091A7020E945A
:1009A00005028091A6028F3F19F060E00E940502C7
:1009B0008091B00284FD34C063E081EA92E00E943D
:1009C000F703CBE4D6E4CE010197F1F763E081EAC7
:1009D00092E00E94F7032197F1F763E081EA92E049
:1009E0000E94F70383E592E00197F1F762E081EA64
:1009F00092E00E94F7038091B00280620E94770427
:100A000084E08093B1028CE00E9477040E947D0410
:100A100082E08093B20286E0DF91CF910C9477045C
:100A200080620E9477048BE496E40197F1F780914D
:100A3000B00280620E94770483E592E00197F1F7AB
:100A40008091B00280620E947704D5CF9091B40269
:100A5000691710F06FEF690FE62FF0E0EF55FD4FCB
:100A60009489890F80680C94770441E00E942404E3
:100A700081E090E008950F931F93CF93DF938C0153
:100A8000D0E0C0E0F801EC0FFD1F6491662339F05F
:100A900041E081EA92E00E9424042196F3CFCE0146
:100AA000DF91CF911F910F9108958F929F92AF92F6
:100AB000BF920F931F93CF93DF93CDB7DEB7A1976C
:100AC0000FB6F894DEBF0FBECDBF19A2423008F4B6
:100AD0004AE08E010F5D1F4F842E912CB12CA12C6A
:100AE000A50194010E94E711E62FB901CA01EA307D
:100AF00044F5E05DD801EE938D01232B242B252BAB
:100B000079F790E080E0109769F0FD0101900020F6
:100B1000E9F73197AF014A1B5B0BBD0181EA92E017
:100B20000E94A600A1960FB6F894DEBF0FBECDBFFF
:100B3000DF91CF911F910F91BF90AF909F908F90B9
:100B40000895E95CD7CFCF92DF92EF92FF926C01CC
:100B5000092E000CEE08FF0897FF16C041E06DE279
:100B600081EA92E00E94240466277727CB016C1962
:100B70007D098E099F094AE00E9455050196FF9064
:100B8000EF90DF90CF9008954AE0C701B601FF9043
:100B9000EF90DF90CF900C945505FC010190002060
:100BA000E9F73197AF01481B590BBC0181EA92E08C
:100BB0000C94A600FC0124813581232B39F421E01B
:100BC000FB018081882349F020E007C0808191816A
:100BD0000E940E1421E0892BB9F7822F08950F93FC
:100BE0001F93CF93DF93EC0188819981009759F08F
:100BF0002A813B812617370730F081E0DF91CF91C2
:100C00001F910F9108958B016F5F7F4F0E944813D2
:100C1000009759F0998388831B830A832C813D8137
:100C2000232B59F7FC011082E8CF80E0E7CFEF9249
:100C3000FF920F931F93CF93DF93EC017B01FB0196
:100C400001900020E9F731978F01061B170BB801BF
:100C50000E94EF0528813981811113C021153105CA
:100C600019F0C9010E94BF12198218821D821C82CC
:100C70001B821A82DF91CF911F910F91FF90EF900D
:100C800008951D830C83B701C901DF91CF911F9196
:100C90000F91FF90EF900C9417141F93CF93DF9355
:100CA00085ED8093BC0080915F0190916001A091DF
:100CB0006101B09162010796A11DB11D23E0B695B7
:100CC000A795979587952A95D1F72091BC0024FD8B
:100CD00003C01092A70152C040915F015091600182
:100CE0006091610170916201452B462B472B69F39E
:100CF0000097A105B10541F025E32A95F1F7000021
:100D00000197A109B109E1CF80915E01C1E0C093D3
:100D10005D01882399F1D091B8001091BA008091BB
:100D2000BC008A7B8093BC0060E082E10E940502E7
:100D300060E083E10E9405021092A701C093A9011F
:100D40001092A80161E082E10E94050261E083E166
:100D50000E9405028091B9008E7F8093B900809136
:100D6000B9008D7F8093B90088E48093B80085E452
:100D70008093BC001093BA00D093B800DF91CF915C
:100D80001F9108950C9482116091040181E090E01C
:100D90000E94C2066091020182E090E00E94C206B9
:100DA0006091000183E090E00E94C2066091D8014A
:100DB00084E090E00C94C2060C947A111F920F927A
:100DC0000FB60F9211242F933F934F935F936F931E
:100DD0007F938F939F93AF93BF93EF93FF9386EE91
:100DE00091E00E942401FF91EF91BF91AF919F91FB
:100DF0008F917F916F915F914F913F912F910F90C4
:100E00000FBE0F901F9018951F920F920FB60F9262
:100E100011242F938F939F93EF93FF93E091F6010B
:100E2000F091F7018081E091FC01F091FD0182FDDC
:100E30001BC090818091FF018F5F8F732091000212
:100E4000821741F0E091FF01F0E0EA51FE4F958FEB
:100E50008093FF01FF91EF919F918F912F910F90C0
:100E60000FBE0F901F9018958081F4CF1F920F92A4
:100E70000FB60F9211242F933F938F939F93AF93AD
:100E8000BF938091CE019091CF01A091D001B091FC
:100E9000D1013091CD0123E0230F2D3758F5019674
:100EA000A11DB11D2093CD018093CE019093CF0160
:100EB000A093D001B093D1018091D2019091D30140
:100EC000A091D401B091D5010196A11DB11D8093CF
:100ED000D2019093D301A093D401B093D501BF91D7
:100EE000AF919F918F913F912F910F900FBE0F90D7
:100EF0001F90189526E8230F0296A11DB11DD2CF91
:100F00001F920F920FB60F9211242F933F934F937E
:100F10005F936F937F938F939F93AF93BF93EF9361
:100F2000FF938091B900887F803609F44AC0F0F5BC
:100F3000883209F4A5C018F5803109F499C0B8F4D5
:100F4000882309F4F5C0883009F492C0FF91EF912D
:100F5000BF91AF919F918F917F916F915F914F91D1
:100F60003F912F910F900FBE0F901F9018958831D1
:100F700009F486C0803251F78093A60114C08034F2
:100F800009F49BC040F48033B9F38833F9F68093B9
:100F9000A60185ECAEC0803509F483C0883509F41C
:100FA00094C0883499F60E944D06D0CF883909F450
:100FB0008AC038F5883729F050F4883611F0803728
:100FC00029F683E08093A7011092A50155C08838C7
:100FD00009F479C0803919F0803809F0B7CF8091D1
:100FE000A501803208F06FC0E091A50181E08E0F6D
:100FF0008093A5018091BB00F0E0EB57FE4F80830A
:101000003BC0803B39F0D0F4803A09F477C0883A8D
:1010100009F09CCF84E08093A70110928401109284
:101020008301F0E0E0E009958091830181110FC018
:1010300081E0809383011092630109C0803C09F430
:10104000A8CF883C09F4A5CF883B09F07FCFE09179
:10105000840181E08E0F80938401F0E0ED59FE4F12
:1010600080818093BB00909184018091830129C08D
:101070008091CC018093BB0085EC8093BC0066CF4F
:101080009091CB018091CA01981758F5E091CB015E
:1010900081E08E0F8093CB01F0E0E655FE4F80811A
:1010A000E9CFE091CB0181E08E0F8093CB0180915D
:1010B000BB00F0E0E655FE4F80839091CB0180911C
:1010C000CA019817C8F285E8D8CFE091CB0181E03A
:1010D0008E0F8093CB018091BB00F0E0E655FE4F70
:1010E00080838091A90181115ECF81E08093A80166
:1010F00084EA8093BC001092A70128CF85EC8093EE
:10110000BC001092A7018091A501803230F4E091DB
:10111000A501F0E0EB57FE4F10826091A50170E051
:1011200085E891E0F0E0E0E009951092A5010ECF8E
:101130001092A60138CFEF92FF920F931F93CF9397
:10114000DF93EC017B01198218821B821A821D82B7
:101150001C82FB0101900020E9F731978F01061BEB
:10116000170BB8010E94EF0528813981811113C046
:101170002115310519F0C9010E94BF121982188288
:101180001D821C821B821A82DF91CF911F910F91C9
:10119000FF90EF9008951D830C83B701C901DF9183
:1011A000CF911F910F91FF90EF900C941714CF9354
:1011B000E6EEF1E01382128288EE93E0A0E0B0E068
:1011C00084839583A683B78380E191E091838083B4
:1011D00085EC90E09587848784EC90E097878687FC
:1011E00080EC90E0918B808B81EC90E0938B828BF4
:1011F00082EC90E0958B848B86EC90E0978B868BCD
:10120000118E128E138E148EE1EAF2E01382128296
:1012100082E291E09183808382E084838FEF8583F3
:10122000C3E0C68384E0878385E0808786E081878A
:1012300087E082871386148615861686178681E0D6
:101240000E948504E7E9F2E082E1818383E1808303
:10125000EFE8F2E08EED97E09683858381E084836A
:101260008383108211821282C7836AE271E089E867
:1012700092E00E949B086AE571E083E892E0CF91DA
:101280000C949B08CF93DF9300D01F92CDB7DEB7AD
:10129000789484B5826084BD84B5816084BD85B551
:1012A000826085BD85B5816085BD80916E0081605D
:1012B00080936E0010928100809181008260809303
:1012C0008100809181008160809381008091800005
:1012D0008160809380008091B10084608093B10030
:1012E0008091B00081608093B00080917A0084602A
:1012F00080937A0080917A00826080937A00809156
:101300007A00816080937A0080917A00806880936F
:101310007A001092C100E091F601F091F70182E0AD
:101320008083E091F201F091F3011082E091F401E9
:10133000F091F5018FEC80831092FE01E091FA01AB
:10134000F091FB0186E08083E091F801F091F901D2
:10135000808180618083E091F801F091F9018081C2
:1013600088608083E091F801F091F90180818068C4
:101370008083E091F801F091F90180818F7D808375
:1013800080919802823109F0BDC580919702833126
:1013900009F0B8C581E08093A00261E082E10E947B
:1013A000050261E083E10E9405028091B9008E7F11
:1013B0008093B9008091B9008D7F8093B9008CE053
:1013C0008093B80085E08093BC0062E08EE00E94CC
:1013D000330262E08FE00E94330262E080E10E940B
:1013E000330262E081E10E94330261E088E00E9402
:1013F000330261E08DE00E94330282E00E948504A6
:1014000060E080E00E94260582E390E00E94DC0616
:1014100081110E94C40660E082E390E00E94C2064F
:1014200081E090E00E94DC0690E0909305018093BB
:10143000040182E090E00E94DC0690E090930301BA
:101440008093020183E090E00E94DC0690E090939C
:1014500001018093000184E090E00E94DC0690E0AE
:101460009093D9018093D801F6E06F2E712C01E0A2
:1014700010E0A3E02A2E312CB4E04B2E512C85E055
:10148000882E912CE7E0AE2EB12C8091A00288230B
:1014900009F440C584EE8093BC008091BC0087FFB6
:1014A000FCCF80ED8093BB0084EC8093BC008091E6
:1014B000BC0087FFFCCF1092BB0084EC8093BC0083
:1014C0008091BC0087FFFCCF84EE8093BC008091AC
:1014D000BC0087FFFCCF81ED8093BB0084EC809340
:1014E000BC008091BC0087FFFCCFE9E9F2E094ECFE
:1014F0009093BC008091BC0087FFFCCF8091BB0023
:10150000819320EA32E02E173F0791F784E8809319
:10151000BC008091BC0087FFFCCF84E98093BC00B5
:1015200020919902822F829587705AE02F70859FB3
:10153000200D112430919A02832F829587703F707D
:10154000859F300D112460919B02462F4F70862F8E
:1015500090E067FF54C565FB882780F9ECE08E9F1B
:10156000400D112450919C0260919D0290919E0229
:1015700080919F0240938F023093900220939102BA
:10158000E62FE295E7707AE06F70E79F600D112417
:1015900060939202692F629567709F70679F900DAC
:1015A000112490939302982F92959F708F70979F1C
:1015B000800D112490E08053984F90939502809372
:1015C0009402509396028091E4019091E501892B59
:1015D00081F450E05093E3014093E201832F90E0C7
:1015E0009093E1018093E00130E03093DF0120939C
:1015F000DE018091E2019091E3010D9721F41093B7
:10160000E3010093E2018091E2019091E3010E97E2
:1016100031F422E030E03093E3012093E201809145
:10162000E2019091E3010F9721F43092E3012092BF
:10163000E2018091E2019091E301409721F4509200
:10164000E3014092E2018091E2019091E301419730
:1016500021F49092E3018092E2018091E201909165
:10166000E301429721F47092E3016092E2018091DC
:10167000E2019091E301439721F4B092E301A0923B
:10168000E2018091E2019091E301449731F488E016
:1016900090E09093E3018093E2018091E2019091C8
:1016A000E301459731F4E9E0F0E0F093E301E093E2
:1016B000E2018091E2019091E301469731F42AE042
:1016C00030E03093E3012093E2018091E2019091B8
:1016D000E301479731F48BE090E09093E30180932E
:1016E000E2018091E2019091E301892B31F4ECE079
:1016F000F0E0F093E301E093E2018091DC0190914E
:10170000DD01892B09F073C060E080E00E942605AE
:101710008091E2019091E3016AE070E00E94D311B0
:10172000CB016AE070E00E94D3110E94A305809172
:10173000E2019091E3016AE070E00E94D3110E94FF
:10174000A3058DE291E00E94CD058091E00190918A
:10175000E1016AE070E00E94D311CB016AE070E021
:101760000E94D3110E94A3058091E0019091E101B4
:101770006AE070E00E94D3110E94A3058DE291E01F
:101780000E94CD058091DE019091DF016AE070E05A
:101790000E94D311CB016AE070E00E94D3110E9435
:1017A000A3058091DE019091DF016AE070E00E9464
:1017B000D3110E94A30589E591E00E94CD05809197
:1017C0008F028C3008F025C46AE271E083E892E071
:1017D0000E94DA05882309F425C48AE291E00E9478
:1017E000CD056AE271E083E892E00E9417068091DD
:1017F000E4019091E501059709F043C060E080E0C5
:101800000E94260583EE90E00E943B0568E572E0A9
:1018100080E090E00E94C3028091E201883158F597
:10182000D090E001FBE3FD1530F1E090DE01FE1504
:1018300010F19AE0F92E6F2D0E94C7118295807FDA
:10184000682F690F82E00E949D038D2D6F2D0E94ED
:10185000C7118295807F682F690F81E00E949D03E8
:101860008E2D6F2D0E94C7118295807F682F690F82
:1018700080E00E949D030E947D041092E501109279
:10188000E4018091DC019091DD01069711F560E0A3
:1018900080E00E94260582ED90E00E943B0561E019
:1018A00080E00E94260582EC90E00E943B050E94A9
:1018B000C40668E572E080E090E00E94C3020E94E6
:1018C0007D041092DD011092DC011093DB01009386
:1018D000DA01E090DC01F090DD011E141F0424F415
:1018E0001092DB011092DA018EE00E94DC01892B5C
:1018F000B1F48091D6019091D701892B81F4809128
:10190000E4019091E5011093D7010093D6011E14D4
:101910001F040CF08EC37092DD016092DC0181E146
:101920000E94DC01892BE1F48091D6019091D701CE
:10193000892BB1F42091E4013091E5018091DC0123
:101940009091DD011093D7010093D6011216130672
:101950000CF075C39092E5018092E4010E947D0431
:101960008EE00E94DC01019749F481E10E94DC01D4
:10197000019721F41092D7011092D6018FE00E94B6
:10198000DC01892B09F04BC08091DC019091DD01D5
:101990002091E4013091E501823091050CF455C3AA
:1019A000232B09F47FC38091E2019091E3014897D2
:1019B00024F01092E3011092E2018091E0019091F5
:1019C000E101CC9724F01092E1011092E0018091A6
:1019D000DE019091DF01CC9724F01092DF0110928C
:1019E000DE018091040190910501489724F0109246
:1019F0000501109204018091020190910301CC979E
:101A000024F0109203011092020180910001909144
:101A10000101CC9724F0109201011092000180E1A5
:101A20000E94DC01892B09F057C08091DC01909164
:101A3000DD012091E4013091E501823091050CF443
:101A40005FC3232B09F489C38091E2019091E301E4
:101A500097FF06C087E190E09093E3018093E20155
:101A60008091E0019091E10197FF06C08BE390E047
:101A70009093E1018093E0018091DE019091DF017C
:101A800097FF06C08BE390E09093DF018093DE0127
:101A9000809104019091050197FF06C087E190E0D5
:101AA00090930501809304018091020190910301BC
:101AB00097FF06C08BE390E09093030180930201AF
:101AC000809100019091010197FF06C08BE390E0A7
:101AD0009093010180930001809104019091050190
:101AE0000D9721F4109305010093040180910401E6
:101AF000909105010E9731F422E030E0309305011A
:101B00002093040180910401909105010F9721F425
:101B10003092050120920401809104019091050109
:101B2000409721F4509205014092040180910401F4
:101B300090910501419721F4909205018092040152
:101B40008091040190910501429721F47092050162
:101B5000609204018091040190910501439721F462
:101B6000B0920501A09204018091040190910501B9
:101B7000449731F488E090E090930501809304014C
:101B80008091040190910501459731F4E9E0F0E07E
:101B9000F0930501E0930401809104019091050107
:101BA000469731F42AE030E0309305012093040198
:101BB0008091040190910501479731F48BE090E00A
:101BC0009093050180930401809104019091050197
:101BD000892B31F4ECE0F0E0F0930501E09304018F
:101BE0008091E4019091E501892B09F082C08091F8
:101BF000DC019091DD01181619060CF07AC060E046
:101C000080E00E94260582E391E00E94CD0580914C
:101C1000D8019091D901892B09F0CDC289E391E0D7
:101C20000E94CD0561E084E00E94260580910401B8
:101C3000909105016AE070E00E94D311CB016AE047
:101C400070E00E94D3110E94A3058091040190913D
:101C500005016AE070E00E94D3110E94A3058DE2A5
:101C600091E00E94CD0580910201909103016AE00C
:101C700070E00E94D311CB016AE070E00E94D311A2
:101C80000E94A30580910201909103016AE070E037
:101C90000E94D3110E94A3058DE291E00E94CD0520
:101CA00080910001909101016AE070E00E94D311DF
:101CB000CB016AE070E00E94D3110E94A3058091DD
:101CC0000001909101016AE070E00E94D3110E942E
:101CD000A30589E591E00E94CD0540918D025091C8
:101CE0008E026091890270918A0281EA92E00E94DC
:101CF000A60064E670E080E090E00E94C30280915C
:101D0000DC019091DD01029774F48091E4019091DF
:101D1000E501019741F460E080E00E94260588E536
:101D200091E00E94CD058091DC019091DD01029748
:101D300074F48091E4019091E501029741F460E030
:101D400083E00E94260588E591E00E94CD05809100
:101D5000DC019091DD01029774F48091E40190918F
:101D6000E501039741F460E086E00E94260588E5DE
:101D700091E00E94CD058091DC019091DD010297F8
:101D800074F48091E4019091E501049741F460E0DE
:101D900089E00E94260588E591E00E94CD058091AA
:101DA000E4019091E501892B71F48091DC0190911F
:101DB000DD01019741F460E086E00E9426058FE492
:101DC00091E00E94CD058091E4019091E501892B7D
:101DD00071F48091DC019091DD01029741F461E0A2
:101DE00084E00E94260588E591E00E94CD0580915F
:101DF000E4019091E501892B71F48091DC019091CF
:101E0000DD01039741F461E087E00E94260588E543
:101E100091E00E94CD058091E4019091E501892B2C
:101E200071F48091DC019091DD01049741F461E04F
:101E30008AE00E94260588E591E00E94CD05809108
:101E4000E4019091E501892B71F48091DC0190917E
:101E5000DD01059741F461E08DE00E94260588E5EB
:101E600091E00E94CD058091DA019091DB0101970C
:101E700009F014C28091D8019091D901019709F01D
:101E80000DC22091E2013091E30180910401909113
:101E900005012817390709F001C22091E0013091AE
:101EA000E10180910201909103012817390709F09F
:101EB000F5C18091DE019091DF014F970CF0EEC1EA
:101EC000209187023091880280918D0290918E023C
:101ED0002817390709F0E2C18091830290918402AA
:101EE0006091890270918A02009709F4BCC1611562
:101EF000710509F063C1232B09F4C2C1FC01808183
:101F000090E0BCC11092A00261E0809197020E9413
:101F100033025BCA80ED0E9469030E946F0280E079
:101F20000E948B030E946F0281ED0E9469030E9450
:101F30006F0289E992E09B838A83F12CE12C60E0B7
:101F4000809198020E94330277E0C72ED12C19822B
:101F500061E0809197020E940502809198020E94A0
:101F6000DC0199270C2C01C0880F0A94EAF7E9815B
:101F7000E82BE98360E0809197020E940502F1E07E
:101F8000CF1AD10828F7EA81FB8129812193FB83AD
:101F9000EA838091980261E036E0E316F10431F1C2
:101FA0000E94330260E0809197020E94050260E087
:101FB000809198020E94050261E0809197020E9440
:101FC000050260E0809197020E94050260E0809126
:101FD00098020E9433028FEFE81AF80A97E0E91698
:101FE000F10409F0ACCF0E9484029ACA0E94330225
:101FF00060E0809197020E94050261E0D9CF64E021
:10200000959587956A95E1F78370859F400D11241A
:10201000A9CA6FE271E083E892E00E94DA058823A2
:1020200009F4DBCB8FE291E00E94CD056FE271E015
:10203000DACB01969093E5018093E40170CC019690
:102040009093DD018093DC0189CC2130310509F0CA
:10205000B8C04091E2015091E3014F5F5F4F509350
:10206000E3014093E2012430310509F099CC6AE2A2
:1020700071E083E892E00E94DA05882309F493CCAA
:102080006FE271E083E892E00E9417068CCC4091E9
:10209000E0015091E1014F5F5F4F5093E1014093A8
:1020A000E001E1CF8130910509F09EC09093D90104
:1020B0008093D801059709F076CC6AE271E089E84F
:1020C00092E00E94DA05882309F46DCC6FE271E09A
:1020D00089E892E0D9CF20910401309105012F5F6A
:1020E0003F4F3093050120930401E4CF809102011A
:1020F000909103010196909303018093020153CCC8
:102100002130310509F086C04091E2015091E30190
:10211000415051095093E3014093E20124303105CD
:1021200009F08FCC6FE271E083E892E00E94DA055B
:10213000882309F489CC6AE271E083E892E00E9486
:10214000170682CC4091E0015091E10141505109C4
:102150005093E1014093E001E1CF8130910509F016
:102160006CC01092D9011092D801059709F06CCC7F
:102170006FE271E089E892E00E94DA05882309F4B1
:1021800063CC6AE271E089E892E0D9CF2091040142
:10219000309105012150310930930501209304014C
:1021A000E4CF809102019091030101979093030184
:1021B0008093020149CC84E491E032CD0E940E1458
:1021C0005DC02230310509F462CF2330310509F0BA
:1021D0004ACF4091DE015091DF014F5F5F4F509336
:1021E000DF014093DE01DCCB8230910509F473CF2F
:1021F0008330910509F47ACF8430910509F05ACFE4
:1022000080910001909101010196909301018093CA
:102210000001C9CB2230310509F494CF23303105B8
:1022200009F07CCF4091DE015091DF01415051090E
:102230005093DF014093DE0104CC8230910509F414
:10224000A5CF8330910509F4ACCF8430910509F016
:102250008CCF809100019091010101979093010131
:1022600080930001F1CB6115710551F0232B41F0F2
:10227000FB01808190E0919581959109892B71F402
:1022800061E08DE00E94050261E088E00E940502A5
:102290006CE271E080E090E00E94C30260E08DE0BB
:1022A0000E94050260E088E00E94050264E670E09A
:1022B00080E090E00E94C30280E090E0892B09F466
:1022C000E4C80E941001882309F4DCC80E940000C1
:1022D000D9C88091830290918402009711F00E94E6
:1022E000BF128091890290918A02009711F00C949C
:1022F000BF120895F999FECF92BD81BDF89A992732
:1023000080B50895262FF999FECF1FBA92BD81BDE1
:1023100020BD0FB6F894FA9AF99A0FBE0196089567
:102320002F923F924F925F926F927F928F929F92E5
:10233000AF92BF92CF92DF92EF92FF920F931F93D3
:10234000CF93DF93CDB7DEB7CA1BDB0B0FB6F89484
:10235000DEBF0FBECDBF09942A88398848885F84C4
:102360006E847D848C849B84AA84B984C884DF8035
:10237000EE80FD800C811B81AA81B981CE0FD11D19
:102380000FB6F894DEBF0FBECDBFED010895991BC7
:1023900079E004C0991F961708F0961B881F7A955C
:1023A000C9F78095089597FB072E16F4009407D07F
:1023B00077FD09D00E94091207FC05D03EF49095E4
:1023C00081959F4F0895709561957F4F0895A1E283
:1023D0001A2EAA1BBB1BFD010DC0AA1FBB1FEE1F9F
:1023E000FF1FA217B307E407F50720F0A21BB30BEA
:1023F000E40BF50B661F771F881F991F1A9469F766
:1024000060957095809590959B01AC01BD01CF01C1
:102410000895AA1BBB1B51E107C0AA1FBB1FA6172B
:10242000B70710F0A61BB70B881F991F5A95A9F77D
:1024300080959095BC01CD010895EE0FFF1F05908A
:10244000F491E02D09940F931F93CF93DF93823083
:10245000910510F482E090E0E091BB02F091BC02A3
:1024600030E020E0B0E0A0E0309799F4211531058C
:1024700009F44AC0281B390B24303105D8F58A816C
:102480009B816115710589F1FB0193838283FE01B4
:1024900011C0408151810281138148175907E0F032
:1024A0004817590799F4109761F012960C931297F8
:1024B00013961C933296CF01DF91CF911F910F910C
:1024C00008950093BB021093BC02F4CF211531058F
:1024D00051F04217530738F0A901DB019A01BD0101
:1024E000DF01F801C1CFEF01F9CF9093BC028093D7
:1024F000BB02CDCFFE01E20FF31F819391932250D7
:10250000310939832883D7CF2091B9023091BA029B
:10251000232B41F420910801309109013093BA0234
:102520002093B90220910601309107012115310550
:1025300041F42DB73EB740910A0150910B01241B85
:10254000350BE091B902F091BA02E217F307A0F45B
:102550002E1B3F0B2817390778F0AC014E5F5F4FF9
:102560002417350748F04E0F5F1F5093BA0240936F
:10257000B902819391939FCFF0E0E0E09CCFCF939D
:10258000DF930097E9F0FC01329713821282A09149
:10259000BB02B091BC02ED0130E020E01097A1F445
:1025A00020813181820F931F2091B9023091BA02AC
:1025B0002817390709F061C0F093BA02E093B90215
:1025C000DF91CF910895EA01CE17DF07E8F54A8140
:1025D0005B819E0141155105B1F7E901FB83EA8357
:1025E00049915991C40FD51FEC17FD0761F4808103
:1025F00091810296840F951FE901998388838281D6
:1026000093819B838A83F0E0E0E012968D919C9108
:1026100013970097B9F52D913C911197CD01029632
:10262000820F931F2091B9023091BA0228173907FF
:1026300039F6309751F51092BC021092BB02B0935C
:10264000BA02A093B902BCCFD383C2834081518127
:10265000840F951FC817D90761F44E5F5F4F8881BB
:102660009981480F591F518340838A819B819383AD
:1026700082832115310509F0B0CFF093BC02E093BD
:10268000BB029ECFFD01DC01C0CF13821282D7CFE7
:10269000B0E0A0E0EEE4F3E10C9492118C0100971D
:1026A00051F4CB010E9423128C01C801CDB7DEB7D3
:1026B000E0E10C94AE11FC01E60FF71F9C012250E3
:1026C0003109E217F30708F49DC0D901CD91DC91DF
:1026D0001197C617D70798F0C530D10530F3CE0152
:1026E00004978617970708F3C61BD70B2297C19349
:1026F000D1936D937C93CF010E94BF12D6CF5B0123
:10270000AC1ABD0A4C018C0E9D1EA091BB02B0916B
:10271000BC02512C412CF12CE12C109731F5809109
:10272000B9029091BA028815990509F05CC0461665
:10273000570608F058C08091060190910701009754
:1027400041F48DB79EB740910A0150910B01841B53
:10275000950BE817F90708F055C0F093BA02E0931B
:10276000B902F90171836083A0CF8D919C9111977B
:1027700012966C90129713967C901397A815B90532
:1027800059F56C0142E0C40ED11CCA14DB0420F1DF
:10279000AC014A195B09DA011296159780F0628242
:1027A000738251834083D9016D937C93E114F104CA
:1027B00071F0D7011396FC93EE93129776CF229681
:1027C0008C0F9D1FF90191838083F301EFCFF0936C
:1027D000BC02E093BB0269CF4816590608F42C01ED
:1027E0007D01D3019ACFCB010E9423127C01009777
:1027F00049F0AE01B8010E940514C8010E94BF1241
:10280000870153CF10E000E050CFFB01DC0102C094
:1028100001900D9241505040D8F70895FB01DC0122
:102820008D91019080190110D9F3990B0895FB0146
:10283000DC0101900D920020E1F7089510E0CBE754
:10284000D0E004C0FE010E941D122196CC37D107B2
:06285000C9F7F894FFCF68
:102856003800060002000000BD02800000000000F3
:102866004601A600D30093010401E200F600000031
:1028760000003505A6004703F502504D003A004119
:102886004D00416C61726D20004465616374697628
:102896006174650041637469766174656420002023
:0C28A600202020202020202020200000E6
:00000001FF
